{
  "contractName": "Lottery",
  "abi": [
    {
      "constant": true,
      "inputs": [],
      "name": "answerForTest",
      "outputs": [
        {
          "name": "",
          "type": "bytes32"
        }
      ],
      "payable": false,
      "stateMutability": "view",
      "type": "function"
    },
    {
      "constant": true,
      "inputs": [],
      "name": "owner",
      "outputs": [
        {
          "name": "",
          "type": "address"
        }
      ],
      "payable": false,
      "stateMutability": "view",
      "type": "function"
    },
    {
      "inputs": [],
      "payable": false,
      "stateMutability": "nonpayable",
      "type": "constructor"
    },
    {
      "anonymous": false,
      "inputs": [
        {
          "indexed": false,
          "name": "index",
          "type": "uint256"
        },
        {
          "indexed": false,
          "name": "bettor",
          "type": "address"
        },
        {
          "indexed": false,
          "name": "amount",
          "type": "uint256"
        },
        {
          "indexed": false,
          "name": "challenges",
          "type": "bytes1"
        },
        {
          "indexed": false,
          "name": "answerBlockNumber",
          "type": "uint256"
        }
      ],
      "name": "BET",
      "type": "event"
    },
    {
      "anonymous": false,
      "inputs": [
        {
          "indexed": false,
          "name": "index",
          "type": "uint256"
        },
        {
          "indexed": false,
          "name": "bettor",
          "type": "address"
        },
        {
          "indexed": false,
          "name": "amount",
          "type": "uint256"
        },
        {
          "indexed": false,
          "name": "challenges",
          "type": "bytes1"
        },
        {
          "indexed": false,
          "name": "answer",
          "type": "bytes1"
        },
        {
          "indexed": false,
          "name": "answerBlockNumber",
          "type": "uint256"
        }
      ],
      "name": "WIN",
      "type": "event"
    },
    {
      "anonymous": false,
      "inputs": [
        {
          "indexed": false,
          "name": "index",
          "type": "uint256"
        },
        {
          "indexed": false,
          "name": "bettor",
          "type": "address"
        },
        {
          "indexed": false,
          "name": "amount",
          "type": "uint256"
        },
        {
          "indexed": false,
          "name": "challenges",
          "type": "bytes1"
        },
        {
          "indexed": false,
          "name": "answer",
          "type": "bytes1"
        },
        {
          "indexed": false,
          "name": "answerBlockNumber",
          "type": "uint256"
        }
      ],
      "name": "DRAW",
      "type": "event"
    },
    {
      "anonymous": false,
      "inputs": [
        {
          "indexed": false,
          "name": "index",
          "type": "uint256"
        },
        {
          "indexed": false,
          "name": "bettor",
          "type": "address"
        },
        {
          "indexed": false,
          "name": "amount",
          "type": "uint256"
        },
        {
          "indexed": false,
          "name": "challenges",
          "type": "bytes1"
        },
        {
          "indexed": false,
          "name": "answer",
          "type": "bytes1"
        },
        {
          "indexed": false,
          "name": "answerBlockNumber",
          "type": "uint256"
        }
      ],
      "name": "FAIL",
      "type": "event"
    },
    {
      "anonymous": false,
      "inputs": [
        {
          "indexed": false,
          "name": "index",
          "type": "uint256"
        },
        {
          "indexed": false,
          "name": "bettor",
          "type": "address"
        },
        {
          "indexed": false,
          "name": "amount",
          "type": "uint256"
        },
        {
          "indexed": false,
          "name": "challenges",
          "type": "bytes1"
        },
        {
          "indexed": false,
          "name": "answerBlockNumber",
          "type": "uint256"
        }
      ],
      "name": "REFUND",
      "type": "event"
    },
    {
      "constant": true,
      "inputs": [],
      "name": "getPot",
      "outputs": [
        {
          "name": "pot",
          "type": "uint256"
        }
      ],
      "payable": false,
      "stateMutability": "view",
      "type": "function"
    },
    {
      "constant": false,
      "inputs": [
        {
          "name": "challenges",
          "type": "bytes1"
        }
      ],
      "name": "betAndDistribute",
      "outputs": [
        {
          "name": "result",
          "type": "bool"
        }
      ],
      "payable": true,
      "stateMutability": "payable",
      "type": "function"
    },
    {
      "constant": false,
      "inputs": [
        {
          "name": "challenges",
          "type": "bytes1"
        }
      ],
      "name": "bet",
      "outputs": [
        {
          "name": "result",
          "type": "bool"
        }
      ],
      "payable": true,
      "stateMutability": "payable",
      "type": "function"
    },
    {
      "constant": true,
      "inputs": [
        {
          "name": "challenges",
          "type": "bytes1"
        },
        {
          "name": "answer",
          "type": "bytes32"
        }
      ],
      "name": "isMatch",
      "outputs": [
        {
          "name": "",
          "type": "uint8"
        }
      ],
      "payable": false,
      "stateMutability": "pure",
      "type": "function"
    },
    {
      "constant": false,
      "inputs": [
        {
          "name": "answer",
          "type": "bytes32"
        }
      ],
      "name": "setAnswerForTest",
      "outputs": [
        {
          "name": "result",
          "type": "bool"
        }
      ],
      "payable": false,
      "stateMutability": "nonpayable",
      "type": "function"
    },
    {
      "constant": false,
      "inputs": [],
      "name": "distribute",
      "outputs": [],
      "payable": false,
      "stateMutability": "nonpayable",
      "type": "function"
    },
    {
      "constant": true,
      "inputs": [
        {
          "name": "index",
          "type": "uint256"
        }
      ],
      "name": "getBetInfo",
      "outputs": [
        {
          "name": "answerBlockNumber",
          "type": "uint256"
        },
        {
          "name": "bettor",
          "type": "address"
        },
        {
          "name": "challenges",
          "type": "bytes1"
        }
      ],
      "payable": false,
      "stateMutability": "view",
      "type": "function"
    }
  ],
  "bytecode": "0x60806040526000600560006101000a81548160ff02191690831515021790555034801561002b57600080fd5b5033600360006101000a81548173ffffffffffffffffffffffffffffffffffffffff021916908373ffffffffffffffffffffffffffffffffffffffff1602179055506116698061007c6000396000f3fe608060405260043610610099576000357c0100000000000000000000000000000000000000000000000000000000900463ffffffff168063403c9fa81461009e5780637009fa36146100c957806379141f801461011c57806384f7e4f0146101e95780638da5cb5b1461021457806399a167d71461026b578063e16ea857146102f4578063e4fc6b6d1461035c578063f4b46f5b14610373575b600080fd5b3480156100aa57600080fd5b506100b36103db565b6040518082815260200191505060405180910390f35b3480156100d557600080fd5b50610102600480360360208110156100ec57600080fd5b81019080803590602001909291905050506103e5565b604051808215151515815260200191505060405180910390f35b34801561012857600080fd5b506101556004803603602081101561013f57600080fd5b81019080803590602001909291905050506104e2565b604051808481526020018373ffffffffffffffffffffffffffffffffffffffff1673ffffffffffffffffffffffffffffffffffffffff168152602001827effffffffffffffffffffffffffffffffffffffffffffffffffffffffffffff19167effffffffffffffffffffffffffffffffffffffffffffffffffffffffffffff19168152602001935050505060405180910390f35b3480156101f557600080fd5b506101fe610607565b6040518082815260200191505060405180910390f35b34801561022057600080fd5b5061022961060d565b604051808273ffffffffffffffffffffffffffffffffffffffff1673ffffffffffffffffffffffffffffffffffffffff16815260200191505060405180910390f35b34801561027757600080fd5b506102d06004803603604081101561028e57600080fd5b8101908080357effffffffffffffffffffffffffffffffffffffffffffffffffffffffffffff1916906020019092919080359060200190929190505050610633565b604051808260028111156102e057fe5b60ff16815260200191505060405180910390f35b6103426004803603602081101561030a57600080fd5b8101908080357effffffffffffffffffffffffffffffffffffffffffffffffffffffffffffff1916906020019092919050505061097c565b604051808215151515815260200191505060405180910390f35b34801561036857600080fd5b50610371610999565b005b6103c16004803603602081101561038957600080fd5b8101908080357effffffffffffffffffffffffffffffffffffffffffffffffffffffffffffff19169060200190929190505050611101565b604051808215151515815260200191505060405180910390f35b6000600454905090565b6000600360009054906101000a900473ffffffffffffffffffffffffffffffffffffffff1673ffffffffffffffffffffffffffffffffffffffff163373ffffffffffffffffffffffffffffffffffffffff161415156104d2576040517f08c379a000000000000000000000000000000000000000000000000000000000815260040180806020018281038252602b8152602001807f4f6e6c79206f776e65722063616e207365742074686520616e7377657220666f81526020017f722074657374206d6f646500000000000000000000000000000000000000000081525060400191505060405180910390fd5b8160068190555060019050919050565b60008060006104ef6115e3565b6002600086815260200190815260200160002060606040519081016040529081600082015481526020016001820160009054906101000a900473ffffffffffffffffffffffffffffffffffffffff1673ffffffffffffffffffffffffffffffffffffffff1673ffffffffffffffffffffffffffffffffffffffff1681526020016001820160149054906101000a90047f0100000000000000000000000000000000000000000000000000000000000000027effffffffffffffffffffffffffffffffffffffffffffffffffffffffffffff19167effffffffffffffffffffffffffffffffffffffffffffffffffffffffffffff1916815250509050806000015193508060200151925080604001519150509193909250565b60065481565b600360009054906101000a900473ffffffffffffffffffffffffffffffffffffffff1681565b6000808390506000849050600084600060208110151561064f57fe5b1a7f0100000000000000000000000000000000000000000000000000000000000000029050600085600060208110151561068557fe5b1a7f01000000000000000000000000000000000000000000000000000000000000000290506004847effffffffffffffffffffffffffffffffffffffffffffffffffffffffffffff1916908060020a820491505093506004847effffffffffffffffffffffffffffffffffffffffffffffffffffffffffffff19169060020a0293506004827effffffffffffffffffffffffffffffffffffffffffffffffffffffffffffff1916908060020a820491505091506004827effffffffffffffffffffffffffffffffffffffffffffffffffffffffffffff19169060020a0291506004837effffffffffffffffffffffffffffffffffffffffffffffffffffffffffffff19169060020a0292506004837effffffffffffffffffffffffffffffffffffffffffffffffffffffffffffff1916908060020a820491505092506004817effffffffffffffffffffffffffffffffffffffffffffffffffffffffffffff19169060020a0290506004817effffffffffffffffffffffffffffffffffffffffffffffffffffffffffffff1916908060020a82049150509050837effffffffffffffffffffffffffffffffffffffffffffffffffffffffffffff1916827effffffffffffffffffffffffffffffffffffffffffffffffffffffffffffff19161480156108b45750827effffffffffffffffffffffffffffffffffffffffffffffffffffffffffffff1916817effffffffffffffffffffffffffffffffffffffffffffffffffffffffffffff1916145b156108c6576001945050505050610976565b837effffffffffffffffffffffffffffffffffffffffffffffffffffffffffffff1916827effffffffffffffffffffffffffffffffffffffffffffffffffffffffffffff1916148061095b5750827effffffffffffffffffffffffffffffffffffffffffffffffffffffffffffff1916817effffffffffffffffffffffffffffffffffffffffffffffffffffffffffffff1916145b1561096d576002945050505050610976565b60009450505050505b92915050565b600061098782611101565b50610990610999565b60019050919050565b6000806109a46115e3565b60008060015494505b6000548510156110f3576002600086815260200190815260200160002060606040519081016040529081600082015481526020016001820160009054906101000a900473ffffffffffffffffffffffffffffffffffffffff1673ffffffffffffffffffffffffffffffffffffffff1673ffffffffffffffffffffffffffffffffffffffff1681526020016001820160149054906101000a90047f0100000000000000000000000000000000000000000000000000000000000000027effffffffffffffffffffffffffffffffffffffffffffffffffffffffffffff19167effffffffffffffffffffffffffffffffffffffffffffffffffffffffffffff1916815250509250610abf83600001516112d6565b915060006002811115610ace57fe5b826002811115610ada57fe5b1415610faf576000610aef846000015161132a565b9050610b0b8460400151610b06866000015161132a565b610633565b915060016002811115610b1a57fe5b826002811115610b2657fe5b1415610ca057610b4584602001516611c37937e0800060045401611352565b945060006004819055507f8219079e2d6c1192fb0ff7f78e6faaf5528ad6687e69749205d87bd4b156912b868560200151878760400151856000602081101515610b8b57fe5b1a7f0100000000000000000000000000000000000000000000000000000000000000028960000151604051808781526020018673ffffffffffffffffffffffffffffffffffffffff1673ffffffffffffffffffffffffffffffffffffffff168152602001858152602001847effffffffffffffffffffffffffffffffffffffffffffffffffffffffffffff19167effffffffffffffffffffffffffffffffffffffffffffffffffffffffffffff19168152602001837effffffffffffffffffffffffffffffffffffffffffffffffffffffffffffff19167effffffffffffffffffffffffffffffffffffffffffffffffffffffffffffff19168152602001828152602001965050505050505060405180910390a15b60006002811115610cad57fe5b826002811115610cb957fe5b1415610e27576611c37937e080006004600082825401925050819055507f3b19d607433249d2ebc766ae82ca3848e9c064f1febb5147bc6e5b21d0adebc5868560200151878760400151856000602081101515610d1257fe5b1a7f0100000000000000000000000000000000000000000000000000000000000000028960000151604051808781526020018673ffffffffffffffffffffffffffffffffffffffff1673ffffffffffffffffffffffffffffffffffffffff168152602001858152602001847effffffffffffffffffffffffffffffffffffffffffffffffffffffffffffff19167effffffffffffffffffffffffffffffffffffffffffffffffffffffffffffff19168152602001837effffffffffffffffffffffffffffffffffffffffffffffffffffffffffffff19167effffffffffffffffffffffffffffffffffffffffffffffffffffffffffffff19168152602001828152602001965050505050505060405180910390a15b600280811115610e3357fe5b826002811115610e3f57fe5b1415610fad57610e5a84602001516611c37937e08000611352565b94507f72ec2e949e4fad9380f9d5db3e2ed0e71cf22c51d8d66424508bdc761a3f4b0e868560200151878760400151856000602081101515610e9857fe5b1a7f0100000000000000000000000000000000000000000000000000000000000000028960000151604051808781526020018673ffffffffffffffffffffffffffffffffffffffff1673ffffffffffffffffffffffffffffffffffffffff168152602001858152602001847effffffffffffffffffffffffffffffffffffffffffffffffffffffffffffff19167effffffffffffffffffffffffffffffffffffffffffffffffffffffffffffff19168152602001837effffffffffffffffffffffffffffffffffffffffffffffffffffffffffffff19167effffffffffffffffffffffffffffffffffffffffffffffffffffffffffffff19168152602001828152602001965050505050505060405180910390a15b505b60016002811115610fbc57fe5b826002811115610fc857fe5b1415610fd3576110f3565b600280811115610fdf57fe5b826002811115610feb57fe5b14156110dc5761100683602001516611c37937e08000611352565b93507f59c0185881271a0f53d43e6ab9310091408f9e0ff9ae2512613de800f26b8de48584602001518686604001518760000151604051808681526020018573ffffffffffffffffffffffffffffffffffffffff1673ffffffffffffffffffffffffffffffffffffffff168152602001848152602001837effffffffffffffffffffffffffffffffffffffffffffffffffffffffffffff19167effffffffffffffffffffffffffffffffffffffffffffffffffffffffffffff191681526020018281526020019550505050505060405180910390a15b6110e58561141b565b5084806001019550506109ad565b846001819055505050505050565b60006611c37937e0800034141515611181576040517f08c379a000000000000000000000000000000000000000000000000000000000815260040180806020018281038252600e8152602001807f4e6f7420656e6f7567682045544800000000000000000000000000000000000081525060200191505060405180910390fd5b61118a8261147f565b15156111fe576040517f08c379a000000000000000000000000000000000000000000000000000000000815260040180806020018281038252601a8152602001807f4661696c20746f206164642061206e65772042657420496e666f00000000000081525060200191505060405180910390fd5b7f100791de9f40bf2d56ffa6dc5597d2fd0b2703ea70bc7548cd74c04f5d215ab760016000540333348560034301604051808681526020018573ffffffffffffffffffffffffffffffffffffffff1673ffffffffffffffffffffffffffffffffffffffff168152602001848152602001837effffffffffffffffffffffffffffffffffffffffffffffffffffffffffffff19167effffffffffffffffffffffffffffffffffffffffffffffffffffffffffffff191681526020018281526020019550505050505060405180910390a160019050919050565b600081431180156112ea5750816101000143105b156112f85760009050611325565b814311151561130a5760019050611325565b6101008201431015156113205760029050611325565b600290505b919050565b6000600560009054906101000a900460ff166113485760065461134b565b81405b9050919050565b60008060009050600081840390508473ffffffffffffffffffffffffffffffffffffffff166108fc829081150290604051600060405180830381858888f193505050501580156113a6573d6000803e3d6000fd5b50600360009054906101000a900473ffffffffffffffffffffffffffffffffffffffff1673ffffffffffffffffffffffffffffffffffffffff166108fc839081150290604051600060405180830381858888f1935050505015801561140f573d6000803e3d6000fd5b50809250505092915050565b6000600260008381526020019081526020016000206000808201600090556001820160006101000a81549073ffffffffffffffffffffffffffffffffffffffff02191690556001820160146101000a81549060ff0219169055505060019050919050565b60006114896115e3565b33816020019073ffffffffffffffffffffffffffffffffffffffff16908173ffffffffffffffffffffffffffffffffffffffff1681525050600343018160000181815250508281604001907effffffffffffffffffffffffffffffffffffffffffffffffffffffffffffff191690817effffffffffffffffffffffffffffffffffffffffffffffffffffffffffffff1916815250508060026000805481526020019081526020016000206000820151816000015560208201518160010160006101000a81548173ffffffffffffffffffffffffffffffffffffffff021916908373ffffffffffffffffffffffffffffffffffffffff16021790555060408201518160010160146101000a81548160ff02191690837f01000000000000000000000000000000000000000000000000000000000000009004021790555090505060008081548092919060010191905055506001915050919050565b60606040519081016040528060008152602001600073ffffffffffffffffffffffffffffffffffffffff16815260200160007effffffffffffffffffffffffffffffffffffffffffffffffffffffffffffff19168152509056fea165627a7a72305820b7ec852149ed6a42d0e42c2cc6feccb4a05c9b49bd1ebfd3beece1a7dc0aed140029",
  "source": "pragma solidity >=0.4.21 <0.6.0;\r\n\r\ncontract Lottery {\r\n    struct BetInfo {\r\n        uint256 answerBlockNumber;\r\n        // 정답을 맞추면 이 주소로 이더를 보내줘야 함 특정주소에 트랜스퍼를 하려면 payable 필요\r\n        address payable bettor;\r\n        bytes1 challenges;\r\n    }\r\n\r\n    uint256 private _tail;\r\n    uint256 private _head;\r\n    mapping(uint256 => BetInfo) private _bets;\r\n\r\n    address payable public owner;\r\n\r\n    uint256 internal constant BLOCK_LIMIT = 256;\r\n    // 배팅한 블록은 3번째 건너의 블록\r\n    uint256 internal constant BET_BLOCK_INTERVAL = 3;\r\n    // 배팅금액을 0.005ETH로 고정\r\n    // ※ ** 거듭제곱;\r\n    uint256 internal constant BET_AMOUNT = 5 * 10**15;\r\n\r\n    uint256 private _pot;\r\n    bool private mode = false; // false : use answer for test , true : use real block hash\r\n    bytes32 public answerForTest;\r\n\r\n    enum BlockStatus {Checkable,NotRevealed,BlockLimitPassed}\r\n    enum BettingResult {Fail,Win,Draw}\r\n\r\n    event BET(uint256 index,address bettor,uint256 amount,bytes1 challenges,uint256 answerBlockNumber);\r\n    event WIN(uint256 index,address bettor,uint256 amount,bytes1 challenges,bytes1 answer,uint256 answerBlockNumber);\r\n    event DRAW(uint256 index,address bettor,uint256 amount,bytes1 challenges,bytes1 answer,uint256 answerBlockNumber);\r\n    event FAIL(uint256 index,address bettor,uint256 amount,bytes1 challenges,bytes1 answer,  uint256 answerBlockNumber);\r\n    event REFUND(uint256 index,address bettor,uint256 amount,bytes1 challenges,uint256 answerBlockNumber);\r\n    \r\n\r\n    constructor() public {\r\n        // msg.sender (address): sender of the message (current call)\r\n        owner = msg.sender;\r\n    }\r\n\r\n    //smart contract 변수를 참조하기 위해서는 view가 들어가야함 변경은 불가\r\n    function getPot() public view returns (uint256 pot) {\r\n        return _pot;\r\n    }\r\n\r\n     /**\r\n     * @dev 베팅과 정답 체크를 한다. 유저는 0.005 ETH를 보내야 하고, 배팅을 1 byte 글자를 보낸다.\r\n     * 큐에 저장된 베팅 정보는 이후 distrubute 함수에서 해결된다.\r\n     * @param challenges 유저가 베팅하는 글자\r\n     * @return 함수가 잘 수행되었는지 확인하는 bool 값\r\n     */\r\n    function betAndDistribute(byte challenges) public payable returns (bool result) {\r\n        bet(challenges);\r\n\r\n        distribute();\r\n\r\n        return true;\r\n    }\r\n\r\n\r\n    /**\r\n     * @dev 베팅을 한다. 유저는 0.005 ETH를 보내야 하고, 배팅을 1 byte 글자를 보낸다.\r\n     * 큐에 저장된 베팅 정보는 이후 distrubute 함수에서 해결된다.\r\n     * @param challenges 유저가 베팅하는 글자\r\n     * @return 함수가 잘 수행되었는지 확인하는 bool 값\r\n     */\r\n\r\n    // save bet bet to the queue\r\n    function bet(bytes1 challenges) public payable returns (bool result) {\r\n        // Check the proper ether is sent\r\n        require(msg.value == BET_AMOUNT, \"Not enough ETH\");\r\n\r\n        // Push bet to the queue\r\n        require(pushBet(challenges), \"Fail to add a new Bet Info\");\r\n\r\n        // emit event\r\n        emit BET(\r\n            _tail - 1,\r\n            msg.sender,\r\n            msg.value,\r\n            challenges,\r\n            block.number + BET_BLOCK_INTERVAL\r\n        );\r\n\r\n        return true;\r\n    }\r\n\r\n    /**\r\n     * @dev 베팅글자와 정답을 확인한다.\r\n     * @param challenges 베팅 글자\r\n     * @param answer 블락 해시\r\n     * @return 정답결과\r\n     */\r\n\r\n    function isMatch(bytes1 challenges, bytes32 answer)\r\n        public\r\n        pure\r\n        returns (BettingResult)\r\n    {\r\n        // challenges 0xab\r\n        // answer 0xab...... ff 3 bytes\r\n\r\n        bytes1 c1 = challenges;\r\n        bytes1 c2 = challenges;\r\n\r\n        bytes1 a1 = answer[0];\r\n        bytes1 a2 = answer[0];\r\n\r\n        // Get first number\r\n        c1 = c1 >> 4; // 0xab -> 0x0a\r\n        c1 = c1 << 4; // 0x0a -> 0xa0\r\n\r\n        a1 = a1 >> 4;\r\n        a1 = a1 << 4;\r\n\r\n        // Get Second number\r\n        c2 = c2 << 4; // 0xab -> 0xb0\r\n        c2 = c2 >> 4; // 0xb0 -> 0x0b\r\n\r\n        a2 = a2 << 4;\r\n        a2 = a2 >> 4;\r\n\r\n        if (a1 == c1 && a2 == c2) {\r\n            return BettingResult.Win;\r\n        }\r\n\r\n        if (a1 == c1 || a2 == c2) {\r\n            return BettingResult.Draw;\r\n        }\r\n\r\n        return BettingResult.Fail;\r\n    }\r\n\r\n    function transferAfterPayingFee(address payable addr, uint256 amount)\r\n        internal\r\n        returns (uint256)\r\n    {\r\n        //uint256 fee = amount / 100;\r\n        uint256 fee = 0;\r\n        uint256 amountWithoutFee = amount - fee;\r\n\r\n        // transfer to addr\r\n        addr.transfer(amountWithoutFee);\r\n\r\n        // transfer to owner\r\n        owner.transfer(fee);\r\n\r\n        // call, send, transfer\r\n        // if specific reason doesn`t exist when you transfer eth use transfer() for security reason.\r\n        return amountWithoutFee;\r\n    }\r\n\r\n    function setAnswerForTest(bytes32 answer) public returns (bool result) {\r\n        require(\r\n            msg.sender == owner,\r\n            \"Only owner can set the answer for test mode\"\r\n        );\r\n        answerForTest = answer;\r\n        return true;\r\n    }\r\n\r\n    function getAnswerBlockHash(uint256 answerBlockNumber)\r\n        internal\r\n        view\r\n        returns (bytes32 answer)\r\n    {\r\n        return mode ? blockhash(answerBlockNumber) : answerForTest;\r\n    }\r\n\r\n    \r\n     /**\r\n     * @dev 베팅 결과값을 확인 하고 팟머니를 분배한다.\r\n     * 정답 싶패 : 팟머니 축척, 정답 맞춤 : 팟머니 획득, 한글자 맞춤 or 정답 확인 불가 : 베팅 금액만 획득\r\n     */\r\n\r\n    function distribute() public {\r\n        // head 3 4 5 6 7 8 9 10 11 12 tail\r\n        uint256 cur;\r\n        uint256 transferAmount;\r\n\r\n        BetInfo memory b;\r\n        BlockStatus currentBlockStatus;\r\n        BettingResult currentBettingResult;\r\n\r\n        for (cur = _head; cur < _tail; cur++) {\r\n            b = _bets[cur];\r\n            currentBlockStatus = getBlockStatus(b.answerBlockNumber);\r\n            // Checkable : block.number >  AnswerBlockNumber && BLOCK_LIMIT + AnswerBlockNumber\r\n            if (currentBlockStatus == BlockStatus.Checkable) {\r\n                bytes32 answerBlockHash = getAnswerBlockHash(\r\n                    b.answerBlockNumber\r\n                );\r\n                currentBettingResult = isMatch(\r\n                    b.challenges,\r\n                    getAnswerBlockHash(b.answerBlockNumber)\r\n                );\r\n                // if win, bettor gets pot\r\n                if (currentBettingResult == BettingResult.Win) {\r\n                    // transfer pot\r\n                    transferAmount = transferAfterPayingFee(\r\n                        b.bettor,\r\n                        _pot + BET_AMOUNT\r\n                    );\r\n\r\n                    // pot = 0\r\n                    _pot = 0;\r\n\r\n                    // emit WIN\r\n                    emit WIN( cur, b.bettor, transferAmount, b.challenges, answerBlockHash[0],b.answerBlockNumber);\r\n                }\r\n\r\n                // if fail, bettor`s money goes pot\r\n                if (currentBettingResult == BettingResult.Fail) {\r\n                    // pot = pot + BET_AMOUNT\r\n                    _pot += BET_AMOUNT;\r\n                    // emit FAIL\r\n                    emit FAIL( cur, b.bettor, transferAmount, b.challenges, answerBlockHash[0],b.answerBlockNumber);\r\n                    \r\n                }\r\n\r\n                // if draw, refund bettor`s money\r\n                if (currentBettingResult == BettingResult.Draw) {\r\n                    // transfer only BET_AMOUNT\r\n                    transferAmount = transferAfterPayingFee(\r\n                        b.bettor,\r\n                        BET_AMOUNT\r\n                    );\r\n                    // emit DRAW\r\n                    emit DRAW( cur, b.bettor, transferAmount, b.challenges, answerBlockHash[0],b.answerBlockNumber);\r\n                }\r\n            }\r\n\r\n            // Not Revealed : block.number <= answerblocknumber\r\n            if (currentBlockStatus == BlockStatus.NotRevealed) {\r\n                break;\r\n            }\r\n\r\n            // Block Limit Passed : block.number >= answerblocknumber + block_limit\r\n            if (currentBlockStatus == BlockStatus.BlockLimitPassed) {\r\n                // refund\r\n                transferAmount = transferAfterPayingFee(b.bettor, BET_AMOUNT);\r\n                // emit refund\r\n                emit REFUND(cur, b.bettor, transferAmount, b.challenges, b.answerBlockNumber);\r\n            }\r\n            popBet(cur);\r\n        }\r\n        _head = cur;\r\n    }\r\n\r\n    function getBlockStatus(uint256 answerBlockNumber)\r\n        internal\r\n        view\r\n        returns (BlockStatus)\r\n    {\r\n        if (\r\n            block.number > answerBlockNumber &&\r\n            block.number < BLOCK_LIMIT + answerBlockNumber\r\n        ) {\r\n            return BlockStatus.Checkable;\r\n        }\r\n\r\n        if (block.number <= answerBlockNumber) {\r\n            return BlockStatus.NotRevealed;\r\n        }\r\n\r\n        if (block.number >= answerBlockNumber + BLOCK_LIMIT) {\r\n            return BlockStatus.BlockLimitPassed;\r\n        }\r\n        return BlockStatus.BlockLimitPassed;\r\n    }\r\n\r\n    // check the answer\r\n\r\n    function getBetInfo(uint256 index)\r\n        public\r\n        view\r\n        returns (\r\n            uint256 answerBlockNumber,\r\n            address bettor,\r\n            bytes1 challenges\r\n        )\r\n    {\r\n        BetInfo memory b = _bets[index];\r\n        answerBlockNumber = b.answerBlockNumber;\r\n        bettor = b.bettor;\r\n        challenges = b.challenges;\r\n    }\r\n\r\n    function pushBet(bytes1 challenges) internal returns (bool) {\r\n        BetInfo memory b;\r\n        b.bettor = msg.sender;\r\n        //block.number(uint) : current block number\r\n        b.answerBlockNumber = block.number + BET_BLOCK_INTERVAL;\r\n        b.challenges = challenges;\r\n\r\n        _bets[_tail] = b;\r\n        _tail++;\r\n\r\n        return true;\r\n    }\r\n\r\n    function popBet(uint256 index) internal returns (bool) {\r\n        delete _bets[index];\r\n        return true;\r\n    }\r\n}\r\n",
  "sourcePath": "C:/Users/omago/Lottery/contracts/Lottery.sol",
  "compiler": {
    "name": "solc",
    "version": "0.5.0+commit.1d4f565a.Emscripten.clang"
  },
  "schemaVersion": "3.0.1",
  "updatedAt": "2022-01-16T10:23:46.287Z",
  "devdoc": {
    "methods": {
      "bet(bytes1)": {
        "details": "베팅을 한다. 유저는 0.005 ETH를 보내야 하고, 배팅을 1 byte 글자를 보낸다.\r 큐에 저장된 베팅 정보는 이후 distrubute 함수에서 해결된다.\r",
        "params": {
          "challenges": "유저가 베팅하는 글자\r"
        },
        "return": "함수가 잘 수행되었는지 확인하는 bool 값\r"
      },
      "betAndDistribute(bytes1)": {
        "details": "베팅과 정답 체크를 한다. 유저는 0.005 ETH를 보내야 하고, 배팅을 1 byte 글자를 보낸다.\r 큐에 저장된 베팅 정보는 이후 distrubute 함수에서 해결된다.\r",
        "params": {
          "challenges": "유저가 베팅하는 글자\r"
        },
        "return": "함수가 잘 수행되었는지 확인하는 bool 값\r"
      },
      "distribute()": {
        "details": "베팅 결과값을 확인 하고 팟머니를 분배한다.\r 정답 싶패 : 팟머니 축척, 정답 맞춤 : 팟머니 획득, 한글자 맞춤 or 정답 확인 불가 : 베팅 금액만 획득\r"
      },
      "isMatch(bytes1,bytes32)": {
        "details": "베팅글자와 정답을 확인한다.\r",
        "params": {
          "answer": "블락 해시\r",
          "challenges": "베팅 글자\r"
        },
        "return": "정답결과\r"
      }
    }
  },
  "userdoc": {
    "methods": {}
  }
}